{
  "contractName": "MerchToken",
  "abi": [
    {
      "inputs": [],
      "stateMutability": "nonpayable",
      "type": "constructor"
    },
    {
      "anonymous": false,
      "inputs": [
        {
          "indexed": true,
          "internalType": "address",
          "name": "owner",
          "type": "address"
        },
        {
          "indexed": true,
          "internalType": "address",
          "name": "approved",
          "type": "address"
        },
        {
          "indexed": true,
          "internalType": "uint256",
          "name": "tokenId",
          "type": "uint256"
        }
      ],
      "name": "Approval",
      "type": "event"
    },
    {
      "anonymous": false,
      "inputs": [
        {
          "indexed": true,
          "internalType": "address",
          "name": "owner",
          "type": "address"
        },
        {
          "indexed": true,
          "internalType": "address",
          "name": "operator",
          "type": "address"
        },
        {
          "indexed": false,
          "internalType": "bool",
          "name": "approved",
          "type": "bool"
        }
      ],
      "name": "ApprovalForAll",
      "type": "event"
    },
    {
      "anonymous": false,
      "inputs": [
        {
          "indexed": true,
          "internalType": "address",
          "name": "buyer",
          "type": "address"
        },
        {
          "indexed": false,
          "internalType": "uint256",
          "name": "tokenId",
          "type": "uint256"
        }
      ],
      "name": "MerchToken",
      "type": "event"
    },
    {
      "anonymous": false,
      "inputs": [
        {
          "indexed": true,
          "internalType": "address",
          "name": "previousOwner",
          "type": "address"
        },
        {
          "indexed": true,
          "internalType": "address",
          "name": "newOwner",
          "type": "address"
        }
      ],
      "name": "OwnershipTransferred",
      "type": "event"
    },
    {
      "anonymous": false,
      "inputs": [
        {
          "indexed": true,
          "internalType": "address",
          "name": "from",
          "type": "address"
        },
        {
          "indexed": true,
          "internalType": "address",
          "name": "to",
          "type": "address"
        },
        {
          "indexed": true,
          "internalType": "uint256",
          "name": "tokenId",
          "type": "uint256"
        }
      ],
      "name": "Transfer",
      "type": "event"
    },
    {
      "inputs": [
        {
          "internalType": "address",
          "name": "to",
          "type": "address"
        },
        {
          "internalType": "uint256",
          "name": "tokenId",
          "type": "uint256"
        }
      ],
      "name": "approve",
      "outputs": [],
      "stateMutability": "nonpayable",
      "type": "function"
    },
    {
      "inputs": [
        {
          "internalType": "address",
          "name": "owner",
          "type": "address"
        }
      ],
      "name": "balanceOf",
      "outputs": [
        {
          "internalType": "uint256",
          "name": "",
          "type": "uint256"
        }
      ],
      "stateMutability": "view",
      "type": "function"
    },
    {
      "inputs": [],
      "name": "baseURI",
      "outputs": [
        {
          "internalType": "string",
          "name": "",
          "type": "string"
        }
      ],
      "stateMutability": "view",
      "type": "function"
    },
    {
      "inputs": [
        {
          "internalType": "uint256",
          "name": "tokenId",
          "type": "uint256"
        }
      ],
      "name": "getApproved",
      "outputs": [
        {
          "internalType": "address",
          "name": "",
          "type": "address"
        }
      ],
      "stateMutability": "view",
      "type": "function"
    },
    {
      "inputs": [
        {
          "internalType": "address",
          "name": "owner",
          "type": "address"
        },
        {
          "internalType": "address",
          "name": "operator",
          "type": "address"
        }
      ],
      "name": "isApprovedForAll",
      "outputs": [
        {
          "internalType": "bool",
          "name": "",
          "type": "bool"
        }
      ],
      "stateMutability": "view",
      "type": "function"
    },
    {
      "inputs": [],
      "name": "merchTypes",
      "outputs": [
        {
          "internalType": "string",
          "name": "",
          "type": "string"
        }
      ],
      "stateMutability": "view",
      "type": "function"
    },
    {
      "inputs": [],
      "name": "name",
      "outputs": [
        {
          "internalType": "string",
          "name": "",
          "type": "string"
        }
      ],
      "stateMutability": "view",
      "type": "function"
    },
    {
      "inputs": [],
      "name": "owner",
      "outputs": [
        {
          "internalType": "address",
          "name": "",
          "type": "address"
        }
      ],
      "stateMutability": "view",
      "type": "function"
    },
    {
      "inputs": [
        {
          "internalType": "uint256",
          "name": "tokenId",
          "type": "uint256"
        }
      ],
      "name": "ownerOf",
      "outputs": [
        {
          "internalType": "address",
          "name": "",
          "type": "address"
        }
      ],
      "stateMutability": "view",
      "type": "function"
    },
    {
      "inputs": [],
      "name": "renounceOwnership",
      "outputs": [],
      "stateMutability": "nonpayable",
      "type": "function"
    },
    {
      "inputs": [
        {
          "internalType": "address",
          "name": "from",
          "type": "address"
        },
        {
          "internalType": "address",
          "name": "to",
          "type": "address"
        },
        {
          "internalType": "uint256",
          "name": "tokenId",
          "type": "uint256"
        }
      ],
      "name": "safeTransferFrom",
      "outputs": [],
      "stateMutability": "nonpayable",
      "type": "function"
    },
    {
      "inputs": [
        {
          "internalType": "address",
          "name": "from",
          "type": "address"
        },
        {
          "internalType": "address",
          "name": "to",
          "type": "address"
        },
        {
          "internalType": "uint256",
          "name": "tokenId",
          "type": "uint256"
        },
        {
          "internalType": "bytes",
          "name": "_data",
          "type": "bytes"
        }
      ],
      "name": "safeTransferFrom",
      "outputs": [],
      "stateMutability": "nonpayable",
      "type": "function"
    },
    {
      "inputs": [
        {
          "internalType": "address",
          "name": "operator",
          "type": "address"
        },
        {
          "internalType": "bool",
          "name": "approved",
          "type": "bool"
        }
      ],
      "name": "setApprovalForAll",
      "outputs": [],
      "stateMutability": "nonpayable",
      "type": "function"
    },
    {
      "inputs": [
        {
          "internalType": "bytes4",
          "name": "interfaceId",
          "type": "bytes4"
        }
      ],
      "name": "supportsInterface",
      "outputs": [
        {
          "internalType": "bool",
          "name": "",
          "type": "bool"
        }
      ],
      "stateMutability": "view",
      "type": "function"
    },
    {
      "inputs": [],
      "name": "symbol",
      "outputs": [
        {
          "internalType": "string",
          "name": "",
          "type": "string"
        }
      ],
      "stateMutability": "view",
      "type": "function"
    },
    {
      "inputs": [],
      "name": "tags",
      "outputs": [
        {
          "internalType": "string",
          "name": "",
          "type": "string"
        }
      ],
      "stateMutability": "view",
      "type": "function"
    },
    {
      "inputs": [
        {
          "internalType": "uint256",
          "name": "index",
          "type": "uint256"
        }
      ],
      "name": "tokenByIndex",
      "outputs": [
        {
          "internalType": "uint256",
          "name": "",
          "type": "uint256"
        }
      ],
      "stateMutability": "view",
      "type": "function"
    },
    {
      "inputs": [
        {
          "internalType": "address",
          "name": "owner",
          "type": "address"
        },
        {
          "internalType": "uint256",
          "name": "index",
          "type": "uint256"
        }
      ],
      "name": "tokenOfOwnerByIndex",
      "outputs": [
        {
          "internalType": "uint256",
          "name": "",
          "type": "uint256"
        }
      ],
      "stateMutability": "view",
      "type": "function"
    },
    {
      "inputs": [
        {
          "internalType": "uint256",
          "name": "tokenId",
          "type": "uint256"
        }
      ],
      "name": "tokenURI",
      "outputs": [
        {
          "internalType": "string",
          "name": "",
          "type": "string"
        }
      ],
      "stateMutability": "view",
      "type": "function"
    },
    {
      "inputs": [],
      "name": "totalSupply",
      "outputs": [
        {
          "internalType": "uint256",
          "name": "",
          "type": "uint256"
        }
      ],
      "stateMutability": "view",
      "type": "function"
    },
    {
      "inputs": [
        {
          "internalType": "address",
          "name": "from",
          "type": "address"
        },
        {
          "internalType": "address",
          "name": "to",
          "type": "address"
        },
        {
          "internalType": "uint256",
          "name": "tokenId",
          "type": "uint256"
        }
      ],
      "name": "transferFrom",
      "outputs": [],
      "stateMutability": "nonpayable",
      "type": "function"
    },
    {
      "inputs": [
        {
          "internalType": "address",
          "name": "newOwner",
          "type": "address"
        }
      ],
      "name": "transferOwnership",
      "outputs": [],
      "stateMutability": "nonpayable",
      "type": "function"
    },
    {
      "inputs": [
        {
          "internalType": "uint256",
          "name": "_price",
          "type": "uint256"
        },
        {
          "internalType": "string",
          "name": "_name",
          "type": "string"
        },
        {
          "internalType": "string",
          "name": "_picture",
          "type": "string"
        },
        {
          "internalType": "string",
          "name": "_description",
          "type": "string"
        },
        {
          "internalType": "bool",
          "name": "_forSale",
          "type": "bool"
        }
      ],
      "name": "mintToken",
      "outputs": [],
      "stateMutability": "payable",
      "type": "function"
    },
    {
      "inputs": [
        {
          "internalType": "uint256",
          "name": "_id",
          "type": "uint256"
        }
      ],
      "name": "buyToken",
      "outputs": [],
      "stateMutability": "payable",
      "type": "function"
    },
    {
      "inputs": [],
      "name": "getTokens",
      "outputs": [
        {
          "internalType": "uint256",
          "name": "",
          "type": "uint256"
        }
      ],
      "stateMutability": "nonpayable",
      "type": "function"
    },
    {
      "inputs": [
        {
          "internalType": "uint256",
          "name": "_tokenId",
          "type": "uint256"
        }
      ],
      "name": "getToken",
      "outputs": [
        {
          "internalType": "string",
          "name": "_name",
          "type": "string"
        },
        {
          "internalType": "string",
          "name": "_picture",
          "type": "string"
        },
        {
          "internalType": "string",
          "name": "_description",
          "type": "string"
        },
        {
          "internalType": "uint256[3]",
          "name": "_ints",
          "type": "uint256[3]"
        },
        {
          "internalType": "bool",
          "name": "_forSale",
          "type": "bool"
        }
      ],
      "stateMutability": "view",
      "type": "function"
    },
    {
      "inputs": [
        {
          "internalType": "uint256",
          "name": "_tokenId",
          "type": "uint256"
        },
        {
          "internalType": "uint256",
          "name": "_newPrice",
          "type": "uint256"
        }
      ],
      "name": "changePrice",
      "outputs": [],
      "stateMutability": "nonpayable",
      "type": "function"
    },
    {
      "inputs": [
        {
          "internalType": "uint256",
          "name": "_tokenId",
          "type": "uint256"
        }
      ],
      "name": "listToken",
      "outputs": [],
      "stateMutability": "nonpayable",
      "type": "function"
    },
    {
      "inputs": [
        {
          "internalType": "uint256",
          "name": "_tokenId",
          "type": "uint256"
        }
      ],
      "name": "unListToken",
      "outputs": [],
      "stateMutability": "nonpayable",
      "type": "function"
    }
  ],
  "bytecode": "0x60806040523480156200001157600080fd5b506040518060400160405280600b81526020017f4d6572636820546f6b656e0000000000000000000000000000000000000000008152506040518060400160405280600481526020017f4f534b4900000000000000000000000000000000000000000000000000000000815250620000966301ffc9a760e01b620001d160201b60201c565b8160069080519060200190620000ae929190620002e2565b508060079080519060200190620000c7929190620002e2565b50620000e06380ac58cd60e01b620001d160201b60201c565b620000f8635b5e139f60e01b620001d160201b60201c565b6200011063780e9d6360e01b620001d160201b60201c565b5050600062000124620002da60201b60201c565b905080600a60006101000a81548173ffffffffffffffffffffffffffffffffffffffff021916908373ffffffffffffffffffffffffffffffffffffffff1602179055508073ffffffffffffffffffffffffffffffffffffffff16600073ffffffffffffffffffffffffffffffffffffffff167f8be0079c531659141344cd1fd0a4f28419497f9722a3daafe3b4186f6b6457e060405160405180910390a3506000600c8190555062000391565b63ffffffff60e01b817bffffffffffffffffffffffffffffffffffffffffffffffffffffffff191614156200026e576040517f08c379a000000000000000000000000000000000000000000000000000000000815260040180806020018281038252601c8152602001807f4552433136353a20696e76616c696420696e746572666163652069640000000081525060200191505060405180910390fd5b6001600080837bffffffffffffffffffffffffffffffffffffffffffffffffffffffff19167bffffffffffffffffffffffffffffffffffffffffffffffffffffffff1916815260200190815260200160002060006101000a81548160ff02191690831515021790555050565b600033905090565b828054600181600116156101000203166002900490600052602060002090601f016020900481019282601f106200032557805160ff191683800117855562000356565b8280016001018555821562000356579182015b828111156200035557825182559160200191906001019062000338565b5b50905062000365919062000369565b5090565b6200038e91905b808211156200038a57600081600090555060010162000370565b5090565b90565b61437f80620003a16000396000f3fe6080604052600436106101c25760003560e01c8063715018a6116100f7578063b936343b11610095578063e6148d5f11610064578063e6148d5f14610ecc578063e985e9c514610f07578063f2fde38b14610f90578063f9a6178414610fe1576101c2565b8063b936343b14610a89578063c87b56dd14610bc2578063de6b7e0914610c76578063e4b50cb814610d06576101c2565b8063a22cb465116100d1578063a22cb465146108aa578063aa6ca80814610907578063b3de019c14610932578063b88d4fde14610977576101c2565b8063715018a6146107ac5780638da5cb5b146107c357806395d89b411461081a576101c2565b80632f745c59116101645780634f6ccce71161013e5780634f6ccce7146105ed5780636352211e1461063c5780636c0360eb146106b757806370a0823114610747576101c2565b80632f745c591461047357806342842e0e146104e2578063435997041461055d576101c2565b8063095ea7b3116101a0578063095ea7b31461034457806318160ddd1461039f57806323b872dd146103ca5780632d296bf114610445576101c2565b806301ffc9a7146101c757806306fdde0314610239578063081812fc146102c9575b600080fd5b3480156101d357600080fd5b5061021f600480360360208110156101ea57600080fd5b8101908080357bffffffffffffffffffffffffffffffffffffffffffffffffffffffff1916906020019092919050505061101c565b604051808215151515815260200191505060405180910390f35b34801561024557600080fd5b5061024e611083565b6040518080602001828103825283818151815260200191508051906020019080838360005b8381101561028e578082015181840152602081019050610273565b50505050905090810190601f1680156102bb5780820380516001836020036101000a031916815260200191505b509250505060405180910390f35b3480156102d557600080fd5b50610302600480360360208110156102ec57600080fd5b8101908080359060200190929190505050611125565b604051808273ffffffffffffffffffffffffffffffffffffffff1673ffffffffffffffffffffffffffffffffffffffff16815260200191505060405180910390f35b34801561035057600080fd5b5061039d6004803603604081101561036757600080fd5b81019080803573ffffffffffffffffffffffffffffffffffffffff169060200190929190803590602001909291905050506111c0565b005b3480156103ab57600080fd5b506103b4611304565b6040518082815260200191505060405180910390f35b3480156103d657600080fd5b50610443600480360360608110156103ed57600080fd5b81019080803573ffffffffffffffffffffffffffffffffffffffff169060200190929190803573ffffffffffffffffffffffffffffffffffffffff16906020019092919080359060200190929190505050611315565b005b6104716004803603602081101561045b57600080fd5b810190808035906020019092919050505061138b565b005b34801561047f57600080fd5b506104cc6004803603604081101561049657600080fd5b81019080803573ffffffffffffffffffffffffffffffffffffffff169060200190929190803590602001909291905050506114ff565b6040518082815260200191505060405180910390f35b3480156104ee57600080fd5b5061055b6004803603606081101561050557600080fd5b81019080803573ffffffffffffffffffffffffffffffffffffffff169060200190929190803573ffffffffffffffffffffffffffffffffffffffff1690602001909291908035906020019092919050505061155a565b005b34801561056957600080fd5b5061057261157a565b6040518080602001828103825283818151815260200191508051906020019080838360005b838110156105b2578082015181840152602081019050610597565b50505050905090810190601f1680156105df5780820380516001836020036101000a031916815260200191505b509250505060405180910390f35b3480156105f957600080fd5b506106266004803603602081101561061057600080fd5b81019080803590602001909291905050506115b3565b6040518082815260200191505060405180910390f35b34801561064857600080fd5b506106756004803603602081101561065f57600080fd5b81019080803590602001909291905050506115d6565b604051808273ffffffffffffffffffffffffffffffffffffffff1673ffffffffffffffffffffffffffffffffffffffff16815260200191505060405180910390f35b3480156106c357600080fd5b506106cc61160d565b6040518080602001828103825283818151815260200191508051906020019080838360005b8381101561070c5780820151818401526020810190506106f1565b50505050905090810190601f1680156107395780820380516001836020036101000a031916815260200191505b509250505060405180910390f35b34801561075357600080fd5b506107966004803603602081101561076a57600080fd5b81019080803573ffffffffffffffffffffffffffffffffffffffff1690602001909291905050506116af565b6040518082815260200191505060405180910390f35b3480156107b857600080fd5b506107c1611784565b005b3480156107cf57600080fd5b506107d861190f565b604051808273ffffffffffffffffffffffffffffffffffffffff1673ffffffffffffffffffffffffffffffffffffffff16815260200191505060405180910390f35b34801561082657600080fd5b5061082f611939565b6040518080602001828103825283818151815260200191508051906020019080838360005b8381101561086f578082015181840152602081019050610854565b50505050905090810190601f16801561089c5780820380516001836020036101000a031916815260200191505b509250505060405180910390f35b3480156108b657600080fd5b50610905600480360360408110156108cd57600080fd5b81019080803573ffffffffffffffffffffffffffffffffffffffff1690602001909291908035151590602001909291905050506119db565b005b34801561091357600080fd5b5061091c611b93565b6040518082815260200191505060405180910390f35b34801561093e57600080fd5b506109756004803603604081101561095557600080fd5b810190808035906020019092919080359060200190929190505050611b9d565b005b34801561098357600080fd5b50610a876004803603608081101561099a57600080fd5b81019080803573ffffffffffffffffffffffffffffffffffffffff169060200190929190803573ffffffffffffffffffffffffffffffffffffffff1690602001909291908035906020019092919080359060200190640100000000811115610a0157600080fd5b820183602082011115610a1357600080fd5b80359060200191846001830284011164010000000083111715610a3557600080fd5b91908080601f016020809104026020016040519081016040528093929190818152602001838380828437600081840152601f19601f820116905080830192505050505050509192919290505050611c2d565b005b610bc0600480360360a0811015610a9f57600080fd5b810190808035906020019092919080359060200190640100000000811115610ac657600080fd5b820183602082011115610ad857600080fd5b80359060200191846001830284011164010000000083111715610afa57600080fd5b909192939192939080359060200190640100000000811115610b1b57600080fd5b820183602082011115610b2d57600080fd5b80359060200191846001830284011164010000000083111715610b4f57600080fd5b909192939192939080359060200190640100000000811115610b7057600080fd5b820183602082011115610b8257600080fd5b80359060200191846001830284011164010000000083111715610ba457600080fd5b9091929391929390803515159060200190929190505050611ca5565b005b348015610bce57600080fd5b50610bfb60048036036020811015610be557600080fd5b8101908080359060200190929190505050612352565b6040518080602001828103825283818151815260200191508051906020019080838360005b83811015610c3b578082015181840152602081019050610c20565b50505050905090810190601f168015610c685780820380516001836020036101000a031916815260200191505b509250505060405180910390f35b348015610c8257600080fd5b50610c8b61263b565b6040518080602001828103825283818151815260200191508051906020019080838360005b83811015610ccb578082015181840152602081019050610cb0565b50505050905090810190601f168015610cf85780820380516001836020036101000a031916815260200191505b509250505060405180910390f35b348015610d1257600080fd5b50610d3f60048036036020811015610d2957600080fd5b8101908080359060200190929190505050612657565b6040518080602001806020018060200186600360200280838360005b83811015610d76578082015181840152602081019050610d5b565b5050505090500185151515158152602001848103845289818151815260200191508051906020019080838360005b83811015610dbf578082015181840152602081019050610da4565b50505050905090810190601f168015610dec5780820380516001836020036101000a031916815260200191505b50848103835288818151815260200191508051906020019080838360005b83811015610e25578082015181840152602081019050610e0a565b50505050905090810190601f168015610e525780820380516001836020036101000a031916815260200191505b50848103825287818151815260200191508051906020019080838360005b83811015610e8b578082015181840152602081019050610e70565b50505050905090810190601f168015610eb85780820380516001836020036101000a031916815260200191505b509850505050505050505060405180910390f35b348015610ed857600080fd5b50610f0560048036036020811015610eef57600080fd5b810190808035906020019092919050505061293d565b005b348015610f1357600080fd5b50610f7660048036036040811015610f2a57600080fd5b81019080803573ffffffffffffffffffffffffffffffffffffffff169060200190929190803573ffffffffffffffffffffffffffffffffffffffff1690602001909291905050506129dd565b604051808215151515815260200191505060405180910390f35b348015610f9c57600080fd5b50610fdf60048036036020811015610fb357600080fd5b81019080803573ffffffffffffffffffffffffffffffffffffffff169060200190929190505050612a71565b005b348015610fed57600080fd5b5061101a6004803603602081101561100457600080fd5b8101908080359060200190929190505050612c81565b005b6000806000837bffffffffffffffffffffffffffffffffffffffffffffffffffffffff19167bffffffffffffffffffffffffffffffffffffffffffffffffffffffff1916815260200190815260200160002060009054906101000a900460ff169050919050565b606060068054600181600116156101000203166002900480601f01602080910402602001604051908101604052809291908181526020018280546001816001161561010002031660029004801561111b5780601f106110f05761010080835404028352916020019161111b565b820191906000526020600020905b8154815290600101906020018083116110fe57829003601f168201915b5050505050905090565b600061113082612d20565b611185576040517f08c379a000000000000000000000000000000000000000000000000000000000815260040180806020018281038252602c81526020018061422f602c913960400191505060405180910390fd5b6004600083815260200190815260200160002060009054906101000a900473ffffffffffffffffffffffffffffffffffffffff169050919050565b60006111cb826115d6565b90508073ffffffffffffffffffffffffffffffffffffffff168373ffffffffffffffffffffffffffffffffffffffff161415611252576040517f08c379a00000000000000000000000000000000000000000000000000000000081526004018080602001828103825260218152602001806142f86021913960400191505060405180910390fd5b8073ffffffffffffffffffffffffffffffffffffffff16611271612d3d565b73ffffffffffffffffffffffffffffffffffffffff1614806112a0575061129f8161129a612d3d565b6129dd565b5b6112f5576040517f08c379a00000000000000000000000000000000000000000000000000000000081526004018080602001828103825260388152602001806141826038913960400191505060405180910390fd5b6112ff8383612d45565b505050565b60006113106002612dfe565b905090565b611326611320612d3d565b82612e13565b61137b576040517f08c379a00000000000000000000000000000000000000000000000000000000081526004018080602001828103825260318152602001806143196031913960400191505060405180910390fd5b611386838383612f07565b505050565b6000600b600083815260200190815260200160002060000154116113ae57600080fd5b600b6000828152602001908152602001600020600001543410156113d157600080fd5b60011515600b600083815260200190815260200160002060060160009054906101000a900460ff1615151461140557600080fd5b6000611410826115d6565b73ffffffffffffffffffffffffffffffffffffffff166108fc349081150290604051600060405180830381858888f193505050509050806114b9576040517f08c379a00000000000000000000000000000000000000000000000000000000081526004018080602001828103825260148152602001807f4661696c656420746f2073656e6420457468657200000000000000000000000081525060200191505060405180910390fd5b6114cc6114c5836115d6565b3384612f07565b6000600b600084815260200190815260200160002060060160006101000a81548160ff0219169083151502179055505050565b600061155282600160008673ffffffffffffffffffffffffffffffffffffffff1673ffffffffffffffffffffffffffffffffffffffff16815260200190815260200160002061314a90919063ffffffff16565b905092915050565b61157583838360405180602001604052806000815250611c2d565b505050565b6040518060400160405280602081526020017f53484952542c534f434b532c4241434b5041434b2c50414e54532c425249434b81525081565b6000806115ca83600261316490919063ffffffff16565b50905080915050919050565b6000611606826040518060600160405280602981526020016141e46029913960026131939092919063ffffffff16565b9050919050565b606060098054600181600116156101000203166002900480601f0160208091040260200160405190810160405280929190818152602001828054600181600116156101000203166002900480156116a55780601f1061167a576101008083540402835291602001916116a5565b820191906000526020600020905b81548152906001019060200180831161168857829003601f168201915b5050505050905090565b60008073ffffffffffffffffffffffffffffffffffffffff168273ffffffffffffffffffffffffffffffffffffffff161415611736576040517f08c379a000000000000000000000000000000000000000000000000000000000815260040180806020018281038252602a8152602001806141ba602a913960400191505060405180910390fd5b61177d600160008473ffffffffffffffffffffffffffffffffffffffff1673ffffffffffffffffffffffffffffffffffffffff1681526020019081526020016000206131b2565b9050919050565b61178c612d3d565b73ffffffffffffffffffffffffffffffffffffffff16600a60009054906101000a900473ffffffffffffffffffffffffffffffffffffffff1673ffffffffffffffffffffffffffffffffffffffff161461184e576040517f08c379a00000000000000000000000000000000000000000000000000000000081526004018080602001828103825260208152602001807f4f776e61626c653a2063616c6c6572206973206e6f7420746865206f776e657281525060200191505060405180910390fd5b600073ffffffffffffffffffffffffffffffffffffffff16600a60009054906101000a900473ffffffffffffffffffffffffffffffffffffffff1673ffffffffffffffffffffffffffffffffffffffff167f8be0079c531659141344cd1fd0a4f28419497f9722a3daafe3b4186f6b6457e060405160405180910390a36000600a60006101000a81548173ffffffffffffffffffffffffffffffffffffffff021916908373ffffffffffffffffffffffffffffffffffffffff160217905550565b6000600a60009054906101000a900473ffffffffffffffffffffffffffffffffffffffff16905090565b606060078054600181600116156101000203166002900480601f0160208091040260200160405190810160405280929190818152602001828054600181600116156101000203166002900480156119d15780601f106119a6576101008083540402835291602001916119d1565b820191906000526020600020905b8154815290600101906020018083116119b457829003601f168201915b5050505050905090565b6119e3612d3d565b73ffffffffffffffffffffffffffffffffffffffff168273ffffffffffffffffffffffffffffffffffffffff161415611a84576040517f08c379a00000000000000000000000000000000000000000000000000000000081526004018080602001828103825260198152602001807f4552433732313a20617070726f766520746f2063616c6c65720000000000000081525060200191505060405180910390fd5b8060056000611a91612d3d565b73ffffffffffffffffffffffffffffffffffffffff1673ffffffffffffffffffffffffffffffffffffffff16815260200190815260200160002060008473ffffffffffffffffffffffffffffffffffffffff1673ffffffffffffffffffffffffffffffffffffffff16815260200190815260200160002060006101000a81548160ff0219169083151502179055508173ffffffffffffffffffffffffffffffffffffffff16611b3e612d3d565b73ffffffffffffffffffffffffffffffffffffffff167f17307eab39ab6107e8899845ad3d59bd9653f200f220920489ca2b5937696c3183604051808215151515815260200191505060405180910390a35050565b6000600c54905090565b6000811415611bab57600080fd5b6000600b60008481526020019081526020016000206000015411611bce57600080fd5b3373ffffffffffffffffffffffffffffffffffffffff16611bee836115d6565b73ffffffffffffffffffffffffffffffffffffffff1614611c0e57600080fd5b80600b6000848152602001908152602001600020600001819055505050565b611c3e611c38612d3d565b83612e13565b611c93576040517f08c379a00000000000000000000000000000000000000000000000000000000081526004018080602001828103825260318152602001806143196031913960400191505060405180910390fd5b611c9f848484846131c7565b50505050565b606087878080601f016020809104026020016040519081016040528093929190818152602001838380828437600081840152601f19601f82011690508083019250505050505050905060008911611d64576040517f08c379a000000000000000000000000000000000000000000000000000000000815260040180806020018281038252601c8152602001807f5072696365206d7573742062652067726561746572207468616e20300000000081525060200191505060405180910390fd5b6000868690501415611dde576040517f08c379a00000000000000000000000000000000000000000000000000000000081526004018080602001828103825260128152602001807f796f75206e65656420612070696374757265000000000000000000000000000081525060200191505060405180910390fd5b6000848490501415611e58576040517f08c379a000000000000000000000000000000000000000000000000000000000815260040180806020018281038252601e8152602001807f4465736372697074696f6e2073686f756c64206e6f74206265206e756c6c000081525060200191505060405180910390fd5b600160ff1681511015611ed3576040517f08c379a00000000000000000000000000000000000000000000000000000000081526004018080602001828103825260128152602001807f5469746c6520697320746f6f2073686f7274000000000000000000000000000081525060200191505060405180910390fd5b604060ff1681511115611f4e576040517f08c379a00000000000000000000000000000000000000000000000000000000081526004018080602001828103825260118152602001807f5469746c6520697320746f6f206c6f6e6700000000000000000000000000000081525060200191505060405180910390fd5b600060023373ffffffffffffffffffffffffffffffffffffffff164301604051602001808281526020019150506040516020818303038152906040526040518082805190602001908083835b60208310611fbd5780518252602082019150602081019050602083039250611f9a565b6001836020036101000a038019825116818451168082178552505050505050905001915050602060405180830381855afa158015611fff573d6000803e3d6000fd5b5050506040513d602081101561201457600080fd5b810190808051906020019092919050505090506000816040516020018082815260200191505060405160208183030381529060405280519060200120905060008160001c90506000600a828161206657fe5b06905060006005838161207557fe5b06905060048111156120d2576040517f08c379a000000000000000000000000000000000000000000000000000000000815260040180806020018281038252602181526020018061425b6021913960400191505060405180910390fd5b600982111561212c576040517f08c379a00000000000000000000000000000000000000000000000000000000081526004018080602001828103825260248152602001806142d46024913960400191505060405180910390fd5b61213833600c54613239565b6040518060e001604052808f81526020018e8e8080601f016020809104026020016040519081016040528093929190818152602001838380828437600081840152601f19601f8201169050808301925050505050505081526020018c8c8080601f016020809104026020016040519081016040528093929190818152602001838380828437600081840152601f19601f8201169050808301925050505050505081526020018a8a8080601f016020809104026020016040519081016040528093929190818152602001838380828437600081840152601f19601f820116905080830192505050505050508152602001838152602001828152602001881515815250600b6000600c548152602001908152602001600020600082015181600001556020820151816001019080519060200190612274929190613f8f565b506040820151816002019080519060200190612291929190613f8f565b5060608201518160030190805190602001906122ae929190613f8f565b506080820151816004015560a0820151816005015560c08201518160060160006101000a81548160ff0219169083151502179055509050506001600c5401600c819055503373ffffffffffffffffffffffffffffffffffffffff167f0204690aa19505ba6c49a2488683b90be00ad6557e40b124989bf130f6f74bc7600c546040518082815260200191505060405180910390a25050505050505050505050505050565b606061235d82612d20565b6123b2576040517f08c379a000000000000000000000000000000000000000000000000000000000815260040180806020018281038252602f8152602001806142a5602f913960400191505060405180910390fd5b6060600860008481526020019081526020016000208054600181600116156101000203166002900480601f01602080910402602001604051908101604052809291908181526020018280546001816001161561010002031660029004801561245b5780601f106124305761010080835404028352916020019161245b565b820191906000526020600020905b81548152906001019060200180831161243e57829003601f168201915b5050505050905060006009805460018160011615610100020316600290049050141561248a5780915050612636565b6000815111156125635760098160405160200180838054600181600116156101000203166002900480156124f55780601f106124d35761010080835404028352918201916124f5565b820191906000526020600020905b8154815290600101906020018083116124e1575b505082805190602001908083835b602083106125265780518252602082019150602081019050602083039250612503565b6001836020036101000a03801982511681845116808217855250505050505090500192505050604051602081830303815290604052915050612636565b600961256e8461342d565b60405160200180838054600181600116156101000203166002900480156125cc5780601f106125aa5761010080835404028352918201916125cc565b820191906000526020600020905b8154815290600101906020018083116125b8575b505082805190602001908083835b602083106125fd57805182526020820191506020810190506020830392506125da565b6001836020036101000a038019825116818451168082178552505050505050905001925050506040516020818303038152906040529150505b919050565b6040518060600160405280603b8152602001614079603b913981565b606080606061266461400f565b6000600c54861061267457600080fd5b600b60008781526020019081526020016000206001018054600181600116156101000203166002900480601f01602080910402602001604051908101604052809291908181526020018280546001816001161561010002031660029004801561271e5780601f106126f35761010080835404028352916020019161271e565b820191906000526020600020905b81548152906001019060200180831161270157829003601f168201915b50505050509450600b60008781526020019081526020016000206002018054600181600116156101000203166002900480601f0160208091040260200160405190810160405280929190818152602001828054600181600116156101000203166002900480156127cf5780601f106127a4576101008083540402835291602001916127cf565b820191906000526020600020905b8154815290600101906020018083116127b257829003601f168201915b50505050509350600b60008781526020019081526020016000206003018054600181600116156101000203166002900480601f0160208091040260200160405190810160405280929190818152602001828054600181600116156101000203166002900480156128805780601f1061285557610100808354040283529160200191612880565b820191906000526020600020905b81548152906001019060200180831161286357829003601f168201915b50505050509250600b600087815260200190815260200160002060000154826000600381106128ab57fe5b602002018181525050600b600087815260200190815260200160002060040154826001600381106128d857fe5b602002018181525050600b6000878152602001908152602001600020600501548260026003811061290557fe5b602002018181525050600b600087815260200190815260200160002060060160009054906101000a900460ff16905091939590929450565b3373ffffffffffffffffffffffffffffffffffffffff1661295d826115d6565b73ffffffffffffffffffffffffffffffffffffffff161461297d57600080fd5b600b600082815260200190815260200160002060060160009054906101000a900460ff16156129ab57600080fd5b6001600b600083815260200190815260200160002060060160006101000a81548160ff02191690831515021790555050565b6000600560008473ffffffffffffffffffffffffffffffffffffffff1673ffffffffffffffffffffffffffffffffffffffff16815260200190815260200160002060008373ffffffffffffffffffffffffffffffffffffffff1673ffffffffffffffffffffffffffffffffffffffff16815260200190815260200160002060009054906101000a900460ff16905092915050565b612a79612d3d565b73ffffffffffffffffffffffffffffffffffffffff16600a60009054906101000a900473ffffffffffffffffffffffffffffffffffffffff1673ffffffffffffffffffffffffffffffffffffffff1614612b3b576040517f08c379a00000000000000000000000000000000000000000000000000000000081526004018080602001828103825260208152602001807f4f776e61626c653a2063616c6c6572206973206e6f7420746865206f776e657281525060200191505060405180910390fd5b600073ffffffffffffffffffffffffffffffffffffffff168173ffffffffffffffffffffffffffffffffffffffff161415612bc1576040517f08c379a00000000000000000000000000000000000000000000000000000000081526004018080602001828103825260268152602001806140e66026913960400191505060405180910390fd5b8073ffffffffffffffffffffffffffffffffffffffff16600a60009054906101000a900473ffffffffffffffffffffffffffffffffffffffff1673ffffffffffffffffffffffffffffffffffffffff167f8be0079c531659141344cd1fd0a4f28419497f9722a3daafe3b4186f6b6457e060405160405180910390a380600a60006101000a81548173ffffffffffffffffffffffffffffffffffffffff021916908373ffffffffffffffffffffffffffffffffffffffff16021790555050565b3373ffffffffffffffffffffffffffffffffffffffff16612ca1826115d6565b73ffffffffffffffffffffffffffffffffffffffff1614612cc157600080fd5b600b600082815260200190815260200160002060060160009054906101000a900460ff16612cee57600080fd5b6000600b600083815260200190815260200160002060060160006101000a81548160ff02191690831515021790555050565b6000612d3682600261357490919063ffffffff16565b9050919050565b600033905090565b816004600083815260200190815260200160002060006101000a81548173ffffffffffffffffffffffffffffffffffffffff021916908373ffffffffffffffffffffffffffffffffffffffff160217905550808273ffffffffffffffffffffffffffffffffffffffff16612db8836115d6565b73ffffffffffffffffffffffffffffffffffffffff167f8c5be1e5ebec7d5bd14f71427d1e84f3dd0314c0f7b2291e5b200ac8c7c3b92560405160405180910390a45050565b6000612e0c8260000161358e565b9050919050565b6000612e1e82612d20565b612e73576040517f08c379a000000000000000000000000000000000000000000000000000000000815260040180806020018281038252602c815260200180614156602c913960400191505060405180910390fd5b6000612e7e836115d6565b90508073ffffffffffffffffffffffffffffffffffffffff168473ffffffffffffffffffffffffffffffffffffffff161480612eed57508373ffffffffffffffffffffffffffffffffffffffff16612ed584611125565b73ffffffffffffffffffffffffffffffffffffffff16145b80612efe5750612efd81856129dd565b5b91505092915050565b8273ffffffffffffffffffffffffffffffffffffffff16612f27826115d6565b73ffffffffffffffffffffffffffffffffffffffff1614612f93576040517f08c379a000000000000000000000000000000000000000000000000000000000815260040180806020018281038252602981526020018061427c6029913960400191505060405180910390fd5b600073ffffffffffffffffffffffffffffffffffffffff168273ffffffffffffffffffffffffffffffffffffffff161415613019576040517f08c379a000000000000000000000000000000000000000000000000000000000815260040180806020018281038252602481526020018061410c6024913960400191505060405180910390fd5b61302483838361359f565b61302f600082612d45565b61308081600160008673ffffffffffffffffffffffffffffffffffffffff1673ffffffffffffffffffffffffffffffffffffffff1681526020019081526020016000206135a490919063ffffffff16565b506130d281600160008573ffffffffffffffffffffffffffffffffffffffff1673ffffffffffffffffffffffffffffffffffffffff1681526020019081526020016000206135be90919063ffffffff16565b506130e9818360026135d89092919063ffffffff16565b50808273ffffffffffffffffffffffffffffffffffffffff168473ffffffffffffffffffffffffffffffffffffffff167fddf252ad1be2c89b69c2b068fc378daa952ba7f163c4a11628f55a4df523b3ef60405160405180910390a4505050565b6000613159836000018361360d565b60001c905092915050565b6000806000806131778660000186613690565b915091508160001c8160001c8090509350935050509250929050565b60006131a6846000018460001b84613729565b60001c90509392505050565b60006131c08260000161381f565b9050919050565b6131d2848484612f07565b6131de84848484613830565b613233576040517f08c379a00000000000000000000000000000000000000000000000000000000081526004018080602001828103825260328152602001806140b46032913960400191505060405180910390fd5b50505050565b600073ffffffffffffffffffffffffffffffffffffffff168273ffffffffffffffffffffffffffffffffffffffff1614156132dc576040517f08c379a00000000000000000000000000000000000000000000000000000000081526004018080602001828103825260208152602001807f4552433732313a206d696e7420746f20746865207a65726f206164647265737381525060200191505060405180910390fd5b6132e581612d20565b15613358576040517f08c379a000000000000000000000000000000000000000000000000000000000815260040180806020018281038252601c8152602001807f4552433732313a20746f6b656e20616c7265616479206d696e7465640000000081525060200191505060405180910390fd5b6133646000838361359f565b6133b581600160008573ffffffffffffffffffffffffffffffffffffffff1673ffffffffffffffffffffffffffffffffffffffff1681526020019081526020016000206135be90919063ffffffff16565b506133cc818360026135d89092919063ffffffff16565b50808273ffffffffffffffffffffffffffffffffffffffff16600073ffffffffffffffffffffffffffffffffffffffff167fddf252ad1be2c89b69c2b068fc378daa952ba7f163c4a11628f55a4df523b3ef60405160405180910390a45050565b60606000821415613475576040518060400160405280600181526020017f3000000000000000000000000000000000000000000000000000000000000000815250905061356f565b600082905060005b6000821461349f578080600101915050600a828161349757fe5b04915061347d565b60608167ffffffffffffffff811180156134b857600080fd5b506040519080825280601f01601f1916602001820160405280156134eb5781602001600182028036833780820191505090505b50905060006001830390508593505b6000841461356757600a848161350c57fe5b0660300160f81b8282806001900393508151811061352657fe5b60200101907effffffffffffffffffffffffffffffffffffffffffffffffffffffffffffff1916908160001a905350600a848161355f57fe5b0493506134fa565b819450505050505b919050565b6000613586836000018360001b613a75565b905092915050565b600081600001805490509050919050565b505050565b60006135b6836000018360001b613a98565b905092915050565b60006135d0836000018360001b613b80565b905092915050565b6000613604846000018460001b8473ffffffffffffffffffffffffffffffffffffffff1660001b613bf0565b90509392505050565b60008183600001805490501161366e576040517f08c379a00000000000000000000000000000000000000000000000000000000081526004018080602001828103825260228152602001806140576022913960400191505060405180910390fd5b82600001828154811061367d57fe5b9060005260206000200154905092915050565b600080828460000180549050116136f2576040517f08c379a000000000000000000000000000000000000000000000000000000000815260040180806020018281038252602281526020018061420d6022913960400191505060405180910390fd5b600084600001848154811061370357fe5b906000526020600020906002020190508060000154816001015492509250509250929050565b600080846001016000858152602001908152602001600020549050600081141583906137f0576040517f08c379a00000000000000000000000000000000000000000000000000000000081526004018080602001828103825283818151815260200191508051906020019080838360005b838110156137b557808201518184015260208101905061379a565b50505050905090810190601f1680156137e25780820380516001836020036101000a031916815260200191505b509250505060405180910390fd5b5084600001600182038154811061380357fe5b9060005260206000209060020201600101549150509392505050565b600081600001805490509050919050565b60006138518473ffffffffffffffffffffffffffffffffffffffff16613ccc565b61385e5760019050613a6d565b60606139f463150b7a0260e01b613873612d3d565b888787604051602401808573ffffffffffffffffffffffffffffffffffffffff1673ffffffffffffffffffffffffffffffffffffffff1681526020018473ffffffffffffffffffffffffffffffffffffffff1673ffffffffffffffffffffffffffffffffffffffff16815260200183815260200180602001828103825283818151815260200191508051906020019080838360005b83811015613923578082015181840152602081019050613908565b50505050905090810190601f1680156139505780820380516001836020036101000a031916815260200191505b5095505050505050604051602081830303815290604052907bffffffffffffffffffffffffffffffffffffffffffffffffffffffff19166020820180517bffffffffffffffffffffffffffffffffffffffffffffffffffffffff83818316178352505050506040518060600160405280603281526020016140b4603291398773ffffffffffffffffffffffffffffffffffffffff16613cdf9092919063ffffffff16565b90506000818060200190516020811015613a0d57600080fd5b8101908080519060200190929190505050905063150b7a0260e01b7bffffffffffffffffffffffffffffffffffffffffffffffffffffffff1916817bffffffffffffffffffffffffffffffffffffffffffffffffffffffff191614925050505b949350505050565b600080836001016000848152602001908152602001600020541415905092915050565b60008083600101600084815260200190815260200160002054905060008114613b745760006001820390506000600186600001805490500390506000866000018281548110613ae357fe5b9060005260206000200154905080876000018481548110613b0057fe5b9060005260206000200181905550600183018760010160008381526020019081526020016000208190555086600001805480613b3857fe5b60019003818190600052602060002001600090559055866001016000878152602001908152602001600020600090556001945050505050613b7a565b60009150505b92915050565b6000613b8c8383613cf7565b613be5578260000182908060018154018082558091505060019003906000526020600020016000909190919091505582600001805490508360010160008481526020019081526020016000208190555060019050613bea565b600090505b92915050565b6000808460010160008581526020019081526020016000205490506000811415613c9757846000016040518060400160405280868152602001858152509080600181540180825580915050600190039060005260206000209060020201600090919091909150600082015181600001556020820151816001015550508460000180549050856001016000868152602001908152602001600020819055506001915050613cc5565b82856000016001830381548110613caa57fe5b90600052602060002090600202016001018190555060009150505b9392505050565b600080823b905060008111915050919050565b6060613cee8484600085613d1a565b90509392505050565b600080836001016000848152602001908152602001600020541415905092915050565b606082471015613d75576040517f08c379a00000000000000000000000000000000000000000000000000000000081526004018080602001828103825260268152602001806141306026913960400191505060405180910390fd5b613d7e85613ccc565b613df0576040517f08c379a000000000000000000000000000000000000000000000000000000000815260040180806020018281038252601d8152602001807f416464726573733a2063616c6c20746f206e6f6e2d636f6e747261637400000081525060200191505060405180910390fd5b600060608673ffffffffffffffffffffffffffffffffffffffff1685876040518082805190602001908083835b60208310613e405780518252602082019150602081019050602083039250613e1d565b6001836020036101000a03801982511681845116808217855250505050505090500191505060006040518083038185875af1925050503d8060008114613ea2576040519150601f19603f3d011682016040523d82523d6000602084013e613ea7565b606091505b5091509150613eb7828286613ec3565b92505050949350505050565b60608315613ed357829050613f88565b600083511115613ee65782518084602001fd5b816040517f08c379a00000000000000000000000000000000000000000000000000000000081526004018080602001828103825283818151815260200191508051906020019080838360005b83811015613f4d578082015181840152602081019050613f32565b50505050905090810190601f168015613f7a5780820380516001836020036101000a031916815260200191505b509250505060405180910390fd5b9392505050565b828054600181600116156101000203166002900490600052602060002090601f016020900481019282601f10613fd057805160ff1916838001178555613ffe565b82800160010185558215613ffe579182015b82811115613ffd578251825591602001919060010190613fe2565b5b50905061400b9190614031565b5090565b6040518060600160405280600390602082028036833780820191505090505090565b61405391905b8082111561404f576000816000905550600101614037565b5090565b9056fe456e756d657261626c655365743a20696e646578206f7574206f6620626f756e6473434f4f4c2c5349434b2c534558592c4352494e47452c434c4f555445442c494e53414e452c434f5a592c5341442c4c454749542c474f42454152534552433732313a207472616e7366657220746f206e6f6e20455243373231526563656976657220696d706c656d656e7465724f776e61626c653a206e6577206f776e657220697320746865207a65726f20616464726573734552433732313a207472616e7366657220746f20746865207a65726f2061646472657373416464726573733a20696e73756666696369656e742062616c616e636520666f722063616c6c4552433732313a206f70657261746f7220717565727920666f72206e6f6e6578697374656e7420746f6b656e4552433732313a20617070726f76652063616c6c6572206973206e6f74206f776e6572206e6f7220617070726f76656420666f7220616c6c4552433732313a2062616c616e636520717565727920666f7220746865207a65726f20616464726573734552433732313a206f776e657220717565727920666f72206e6f6e6578697374656e7420746f6b656e456e756d657261626c654d61703a20696e646578206f7574206f6620626f756e64734552433732313a20617070726f76656420717565727920666f72206e6f6e6578697374656e7420746f6b656e4661696c65642072616e646f6d20636865636b2c20494420746f6f206c617267654552433732313a207472616e73666572206f6620746f6b656e2074686174206973206e6f74206f776e4552433732314d657461646174613a2055524920717565727920666f72206e6f6e6578697374656e7420746f6b656e4661696c65642072616e646f6d20636865636b2c20746167494420746f6f206c617267654552433732313a20617070726f76616c20746f2063757272656e74206f776e65724552433732313a207472616e736665722063616c6c6572206973206e6f74206f776e6572206e6f7220617070726f766564a264697066735822122080e8ed6965ded7ec8143c7208bb477dea362da086d90e5fb58fc8faa6039fd2864736f6c63430006060033",
  "immutableReferences": {},
  "source": "pragma solidity >=0.6.0 <0.8.0;\n\nimport \"@openzeppelin/contracts/access/Ownable.sol\";\nimport \"@openzeppelin/contracts/token/ERC721/ERC721.sol\";\n\ncontract MerchToken is ERC721, Ownable {\n    /*** EVENTS ***/\n    /// The event emitted (useable by web3) when a token is purchased\n    event MerchToken(address indexed buyer, uint256 tokenId);\n\n    /*** CONSTANTS ***/\n    uint8 constant NAME_MIN_LENGTH = 1;\n    uint8 constant NAME_MAX_LENGTH = 64;\n    string constant public merchTypes = \"SHIRT,SOCKS,BACKPACK,PANTS,BRICK\";\n    string constant public tags = \"COOL,SICK,SEXY,CRINGE,CLOUTED,INSANE,COZY,SAD,LEGIT,GOBEARS\";\n\n    /*** DATA S ***/\n    struct MerchInfo {\n        uint256 price;\n        string name;\n        string picture;\n        string description;\n        uint256 merchType;\n        uint256 tag;\n        bool forSale;\n    }\n\n    //This mapping is from the tokens that exist in the contract to\n    //a relevant MerchInfo struct containing the token's properties\n    mapping(uint256 => MerchInfo) tokenInfos;\n\n    // The next token id to be issued. Every time a token is minted, index\n    // increases by 1.\n    uint256 index;\n\n    constructor() public ERC721(\"Merch Token\", \"OSKI\") {\n        // any init code when you deploy the contract would run here\n\n        //initialize contract with no tokens\n        index = 0;\n    }\n\n    /* Requires the amount of Ether be at least or more of the currentPrice\n     * @dev Creates an instance of an token and mints it to the purchaser.\n     *\n     * the default ERC721 Requires gas to mint, but we modified\n     * it to mint for free and have a price set by the user*/\n    function mintToken(\n        uint256 _price,\n        string calldata _name,\n        string calldata _picture,\n        string calldata _description,\n        bool _forSale\n    ) external payable {\n        bytes memory _nameBytes = bytes(_name);\n        require(_price > 0, \"Price must be greater than 0\");\n        require(bytes(_picture).length != 0, \"you need a picture\");\n        require(\n            bytes(_description).length != 0,\n            \"Description should not be null\"\n        );\n        require(_nameBytes.length >= NAME_MIN_LENGTH, \"Title is too short\");\n        require(_nameBytes.length <= NAME_MAX_LENGTH, \"Title is too long\");\n\n        // ***********TO DO:*************  Generate psedorandom numbers\n        // by running blocktimestamp+address -> blackbox hashing function -> determine from last digit of result\n        bytes32 hash1 = sha256(abi.encode(block.number + uint256(msg.sender)));\n        bytes32 hash2 = keccak256(abi.encode(hash1));\n        uint256 result = uint256(hash2);\n\n        uint256 _merchType = result % 10;\n        uint256 _tag = result % 5;\n\n        require(_tag <= 4, \"Failed random check, ID too large\");\n        require(_merchType <= 9, \"Failed random check, tagID too large\");\n\n        _mint(msg.sender, index);\n\n        tokenInfos[index] = MerchInfo({\n            price: _price,\n            name: _name,\n            picture: _picture,\n            description: _description,\n            merchType: _merchType,\n            tag: _tag,\n            forSale: _forSale\n        });\n\n        //*****TO:DO****** once a token is minted, tell the contract by changing one variable\n        index = index + 1;\n\n        emit MerchToken(msg.sender, index);\n    }\n\n    function buyToken(uint256 _id) external payable {\n        require(tokenInfos[_id].price > 0); // ensure token exists\n        require(msg.value >= tokenInfos[_id].price); // ensure enough money paid for token\n        require(tokenInfos[_id].forSale == true); // ensure for sale\n\n        //pay with eth\n        bool sent = payable(ownerOf(_id)).send(msg.value);\n        require(sent, \"Failed to send Ether\");\n\n        //transfer the NFT\n        _transfer(ownerOf(_id), msg.sender, _id);\n        tokenInfos[_id].forSale = false;\n    }\n\n    // Returns the number of tokens issued so far\n    function getTokens() public returns (uint256) {\n        return index;\n    }\n\n    /* @notice Returns all the relevant information about a specific token\n     * @param _tokenId The ID of the token of interest */\n    function getToken(uint256 _tokenId)\n        external\n        view\n        returns (\n            string memory _name,\n            string memory _picture,\n            string memory _description,\n            uint256[3] memory _ints, //price, tag, and type are stored as ints in this array\n            bool _forSale\n        )\n    {\n        require(_tokenId < index); // ensure token exists\n\n        _name = tokenInfos[_tokenId].name;\n        _picture = tokenInfos[_tokenId].picture;\n        _description = tokenInfos[_tokenId].description;\n\n        _ints[0] = (tokenInfos[_tokenId].price);\n        _ints[1] = (tokenInfos[_tokenId].merchType);\n        _ints[2] = (tokenInfos[_tokenId].tag);\n\n        _forSale = tokenInfos[_tokenId].forSale;\n    }\n\n    //******TO DO************\n    // Changes the price that must be paid to buy a particular token\n    function changePrice(uint256 _tokenId, uint256 _newPrice) public {\n        require(_newPrice != 0);\n        require(tokenInfos[_tokenId].price > 0);\n        require(ownerOf(_tokenId) == msg.sender);\n        tokenInfos[_tokenId].price = _newPrice;\n    }\n\n    // Allow a token to be sold\n    function listToken(uint256 _tokenId) public {\n        require(ownerOf(_tokenId) == msg.sender);\n        require(!tokenInfos[_tokenId].forSale);\n        tokenInfos[_tokenId].forSale = true;\n    }\n\n    // Disallow a token to be sold\n    function unListToken(uint256 _tokenId) public {\n        require(ownerOf(_tokenId) == msg.sender);\n        require(tokenInfos[_tokenId].forSale);\n        tokenInfos[_tokenId].forSale = false;\n    }\n}\n",
  "sourcePath": "/Users/rahulkaparaboyna/Documents/blockchainFinal/DevDecalProject_Sp21/contracts/MerchToken.sol",
  "compiler": {
    "name": "solc",
    "version": "0.6.6+commit.6c089d02.Emscripten.clang"
  },
  "schemaVersion": "3.3.4",
  "updatedAt": "2021-05-07T01:32:46.413Z",
  "devdoc": {
    "methods": {
      "approve(address,uint256)": {
        "details": "See {IERC721-approve}."
      },
      "balanceOf(address)": {
        "details": "See {IERC721-balanceOf}."
      },
      "baseURI()": {
        "details": "Returns the base URI set via {_setBaseURI}. This will be automatically added as a prefix in {tokenURI} to each token's URI, or to the token ID if no specific URI is set for that token ID."
      },
      "getApproved(uint256)": {
        "details": "See {IERC721-getApproved}."
      },
      "isApprovedForAll(address,address)": {
        "details": "See {IERC721-isApprovedForAll}."
      },
      "name()": {
        "details": "See {IERC721Metadata-name}."
      },
      "owner()": {
        "details": "Returns the address of the current owner."
      },
      "ownerOf(uint256)": {
        "details": "See {IERC721-ownerOf}."
      },
      "renounceOwnership()": {
        "details": "Leaves the contract without owner. It will not be possible to call `onlyOwner` functions anymore. Can only be called by the current owner.     * NOTE: Renouncing ownership will leave the contract without an owner, thereby removing any functionality that is only available to the owner."
      },
      "safeTransferFrom(address,address,uint256)": {
        "details": "See {IERC721-safeTransferFrom}."
      },
      "safeTransferFrom(address,address,uint256,bytes)": {
        "details": "See {IERC721-safeTransferFrom}."
      },
      "setApprovalForAll(address,bool)": {
        "details": "See {IERC721-setApprovalForAll}."
      },
      "supportsInterface(bytes4)": {
        "details": "See {IERC165-supportsInterface}.     * Time complexity O(1), guaranteed to always use less than 30 000 gas."
      },
      "symbol()": {
        "details": "See {IERC721Metadata-symbol}."
      },
      "tokenByIndex(uint256)": {
        "details": "See {IERC721Enumerable-tokenByIndex}."
      },
      "tokenOfOwnerByIndex(address,uint256)": {
        "details": "See {IERC721Enumerable-tokenOfOwnerByIndex}."
      },
      "tokenURI(uint256)": {
        "details": "See {IERC721Metadata-tokenURI}."
      },
      "totalSupply()": {
        "details": "See {IERC721Enumerable-totalSupply}."
      },
      "transferFrom(address,address,uint256)": {
        "details": "See {IERC721-transferFrom}."
      },
      "transferOwnership(address)": {
        "details": "Transfers ownership of the contract to a new account (`newOwner`). Can only be called by the current owner."
      }
    }
  },
  "userdoc": {
    "methods": {}
  }
}